:100000000C9462000C948A000C948A000C948A0070
:100010000C948A000C948A000C948A000C948A0038
:100020000C948A000C948A000C948A000C948A0028
:100030000C948A000C948A000C948A000C948A0018
:100040000C94CA040C948A000C9498040C947204C6
:100050000C948A000C948A000C948A000C948A00F8
:100060000C948A000C948A000000000024002700F1
:100070002A0000000000250028002B0000000008D6
:10008000000201000003040700000000000000005F
:1000900000000000230026002900040404040404D6
:1000A0000404020202020202030303030303010227
:1000B00004081020408001020408102001020408F6
:1000C0001020590511241FBECFEFD8E0DEBFCDBFF1
:1000D00011E0A0E0B1E0E4E2F2E102C005900D928F
:1000E000AA3FB107D9F722E0AAEFB1E001C01D9203
:1000F000A83BB207E1F710E0C2E6D0E004C02197C8
:10010000FE010E940A09C136D107C9F70E94A40561
:100110000C9410090C940000AF92BF92CF92DF9222
:10012000EF92FF920F931F93CF93DF936C017B01AC
:100130008B01040F151FEB015E01AE18BF08C0173D
:10014000D10759F06991D601ED91FC910190F081B0
:10015000E02DC6010995892B79F7C501DF91CF9173
:100160001F910F91FF90EF90DF90CF90BF90AF90D5
:100170000895FC01538D448D252F30E0842F90E0AD
:10018000821B930B541710F0CF9608950197089592
:10019000FC01918D828D981761F0A28DAE0FBF2F5B
:1001A000B11D5D968C91928D9F5F9F73928F90E0B1
:1001B00008958FEF9FEF0895FC01918D828D981720
:1001C00031F0828DE80FF11D858D90E008958FEF5D
:1001D0009FEF0895FC01918D228D892F90E0805C26
:1001E0009F4F821B91098F739927089583E092E0B6
:1001F0000E94EA0021E0892B09F420E0822F089573
:1002000080E090E0892B29F00E94F60081110C9487
:1002100000000895FC01A48DA80FB92FB11DA35AA9
:10022000BF4F2C91848D90E001968F739927848F16
:10023000A689B7892C93A089B1898C918370806439
:100240008C93938D848D981306C00288F389E02DDA
:1002500080818F7D80830895EF92FF920F931F938B
:10026000CF93DF93EC0181E0888F9B8D8C8D981369
:100270001AC0E889F989808185FF15C09FB7F89475
:10028000EE89FF896083E889F989808183708064C1
:1002900080839FBF81E090E0DF91CF911F910F910C
:1002A000FF90EF900895F62E0B8D10E00F5F1F4F1B
:1002B0000F731127E02E8C8D8E110CC00FB607FC2A
:1002C000FACFE889F989808185FFF5CFCE010E94B8
:1002D0000A01F1CFEB8DEC0FFD2FF11DE35AFF4F1B
:1002E000F0829FB7F8940B8FEA89FB898081806246
:1002F000CFCFCF93DF93EC01888D8823B9F0AA8903
:10030000BB89E889F9898C9185FD03C0808186FDD0
:100310000DC00FB607FCF7CF8C9185FFF2CF80811F
:1003200085FFEDCFCE010E940A01E9CFDF91CF9189
:10033000089590E0FC01E458FF4F2491FC01E25540
:10034000FF4F3491FC01E656FF4FE491EE23C9F0D4
:10035000222339F0233001F1A8F4213019F12230A1
:1003600029F1F0E0EE0FFF1FEE58FF4FA591B49179
:100370008FB7F894EC91611126C030953E233C93E1
:100380008FBF08952730A9F02830C9F0243049F7ED
:10039000809180008F7D03C0809180008F77809353
:1003A0008000DFCF84B58F7784BDDBCF84B58F7DB0
:1003B000FBCF8091B0008F778093B000D2CF809137
:1003C000B0008F7DF9CF3E2BDACFCF93DF9390E053
:1003D000FC01E255FF4F249186569F4FFC0184910A
:1003E0008823D1F090E0880F991FFC01E859FF4F56
:1003F000A591B491FC01EE58FF4FC591D4916111C4
:100400000EC09FB7F8948C91E22FE0958E238C93C9
:100410002881E223E8839FBFDF91CF9108958FB7B2
:10042000F894EC91E22BEC938FBFF6CF3FB7F894A2
:100430008091FF0190910002A0910102B09102020F
:1004400026B5A89B05C02F3F19F00196A11DB11D2F
:100450003FBFBA2FA92F982F8827BC01CD01620F6B
:10046000711D811D911D42E0660F771F881F991F26
:100470004A95D1F708958F929F92AF92BF92CF92F3
:10048000DF92EF92FF924B015C010E9416026B011A
:100490007C010E9416026C197D098E099F09683E35
:1004A000734081059105A8F321E0821A9108A10803
:1004B000B10888EEC80E83E0D81EE11CF11C81143F
:1004C0009104A104B10429F7FF90EF90DF90CF9041
:1004D000BF90AF909F908F900895089590E080E036
:1004E0000895CF93DF93EC0160E08E810E94990123
:1004F00061E08E810E94990160E08E810E949901E5
:100500008BE891E00197F1F7DF91CF910895CF92B9
:10051000DF92EF92FF920F931F93CF93DF936C01C3
:100520007C0187E0E80EF11CD0E0C0E0062F10E06F
:10053000B8010C2E02C0759567950A94E2F76170B8
:10054000F70181917F010E9499012196C430D10564
:1005500079F7C601DF91CF911F910F91FF90EF9036
:10056000DF90CF900C947102CF92DF92EF92FF92C6
:100570000F931F93CF93DF93EC01F62E642F8C81A2
:100580000E9499018D818F3F19F060E00E949901CE
:100590000F2D10E08F8584FF25C06E0187E0C80E07
:1005A000D11CF12CE12CB8010E2C02C07595679579
:1005B0000A94E2F76170F60181916F010E9499013E
:1005C000FFEFEF1AFF0A88E0E816F10461F7CE01A9
:1005D000DF91CF911F910F91FF90EF90DF90CF901F
:1005E0000C947102B80184E0759567958A95E1F7DE
:1005F000CE010E9487026F2DCE01DF91CF911F9116
:100600000F91FF90EF90DF90CF900C94870240E025
:10061000682F80EA92E00C94B40281E00E94070304
:100620008BE39FE10197F1F70895CF93DF93623059
:1006300029F49091AF0298609093AF026093B30257
:100640001092B40290E49093B5028093B602805C5D
:100650008093B70261E08091A4020E94E50180913D
:10066000A5028F3F19F061E00E94E50161E08091F1
:10067000A6020E94E501C0EAD2E09E01205A324063
:100680008091AF0284FD0BC084E090E02196281792
:10069000390744F461E08E810E94E501EECF88E0E5
:1006A00090E0F4CF8BE39DE00197F1F760E080915B
:1006B000A4020E94990160E08091A6020E94990123
:1006C0008091A5028F3F19F060E00E94990180910E
:1006D000AF0284FD34C063E080EA92E00E948702AA
:1006E000CBE4D6E4CE010197F1F763E080EA92E033
:1006F0000E9487022197F1F763E080EA92E00E946E
:10070000870283E592E00197F1F762E080EA92E0E8
:100710000E9487028091AF0280620E94070384E0FA
:100720008093B0028CE00E9407030E940D0382E0D8
:100730008093B10286E0DF91CF910C940703806231
:100740000E9407038BE496E40197F1F78091AF02D2
:1007500080620E94070383E592E00197F1F78091A0
:10076000AF0280620E940703D5CF9091B302891730
:1007700010F08FEF890FE82FF0E0E056FD4F8489ED
:1007800080680C94070341E00E94B40281E090E08D
:100790000895FB0101900020E9F73197AF01461B56
:1007A000570BDC01ED91FC910280F381E02D09945F
:1007B000CF93DF93BC0183E092E00E94C903EC0178
:1007C0006EE171E083E092E00E94C9038C0F9D1FEF
:1007D000DF91CF9108954F925F926F927F92AF9287
:1007E000BF92CF92DF92EF92FF920F931F93CF931E
:1007F000DF93CDB7DEB7A1970FB6F894DEBF0FBE7B
:10080000CDBF5C016A017B01F7FE47C0DC01ED91C1
:10081000FC910190F081E02D6DE209958C01222779
:100820003327A9012C193D094E095F0919A2FE01C0
:10083000B1967F019AE0492E512C612C712CCA018E
:10084000B901A30192010E94E808605DD7016E938F
:100850007D01211531054105510589F790E080E0C2
:10086000109721F0BD01C5010E94C903800F911F9F
:10087000A1960FB6F894DEBF0FBECDBFDF91CF912A
:100880001F910F91FF90EF90DF90CF90BF90AF90AE
:100890007F906F905F904F900895AB01960119A2E1
:1008A0008E010F5D1F4F8AE0C82ED12CE12CF12C58
:1008B000CA01B901A70196010E94E808605DF8012C
:1008C00062938F01211531054105510589F790E0AB
:1008D00080E0309769F2BF01C5010E94C903C8CF0B
:1008E0000C94C9031F920F920FB60F9211242F93ED
:1008F0003F934F935F936F937F938F939F93AF93A8
:10090000BF93EF93FF9383E092E00E940A01FF916F
:10091000EF91BF91AF919F918F917F916F915F9177
:100920004F913F912F910F900FBE0F901F901895F0
:100930001F920F920FB60F9211242F938F939F93B4
:10094000EF93FF93E0911302F09114028081E09104
:100950001902F0911A0282FD1BC0908180911C0245
:100960008F5F8F7320911D02821741F0E0911C026E
:10097000F0E0ED5FFD4F958F80931C02FF91EF91AA
:100980009F918F912F910F900FBE0F901F901895F0
:100990008081F4CF1F920F920FB60F9211242F93E4
:1009A0003F938F939F93AF93BF938091FB0190915F
:1009B000FC01A091FD01B091FE013091FA0123E00C
:1009C000230F2D3758F50196A11DB11D2093FA0173
:1009D0008093FB019093FC01A093FD01B093FE0175
:1009E0008091FF0190910002A0910102B09102025A
:1009F0000196A11DB11D8093FF0190930002A09369
:100A00000102B0930202BF91AF919F918F913F91EC
:100A10002F910F900FBE0F901F90189526E8230F6F
:100A20000296A11DB11DD2CFCF92DF92EF92FF921D
:100A30000F931F93E82FF92F05C0015011092109C9
:100A4000310961F1908196239417B9F305C00150E3
:100A500011092109310911F1908196239413F7CFDF
:100A6000C12CD12CE12CF12C0AC08FEFC81AD80A66
:100A7000E80AF80A0C151D052E053F0579F080815E
:100A80008623841791F36C2D7D2D8E2D9F2D1F9124
:100A90000F91FF90EF90DF90CF90089560E070E0AD
:100AA00080E090E01F910F91FF90EF90DF90CF904A
:100AB0000895E3E0F2E01382128288EE93E0A0E072
:100AC000B0E084839583A683B78384E091E091832B
:100AD000808385EC90E09587848784EC90E097870D
:100AE000868780EC90E0918B808B81EC90E0938BFB
:100AF000828B82EC90E0958B848B86EC90E0978BD8
:100B0000868B118E128E138E148EE0EAF2E0138221
:100B1000128286E191E0918380838CE084838FEF61
:100B200085838BE0868385E0878384E0808783E00C
:100B3000818782E08287138614861586168617863B
:100B400061E080E10C941503789484B5826084BDE3
:100B500084B5816084BD85B5826085BD85B58160C1
:100B600085BD80916E00816080936E00109281003F
:100B700080918100826080938100809181008160FA
:100B800080938100809180008160809380008091BB
:100B9000B10084608093B1008091B0008160809347
:100BA000B00080917A00846080937A0080917A000E
:100BB000826080937A0080917A00816080937A00CD
:100BC00080917A00806880937A001092C100E09151
:100BD0001302F091140282E08083E0910F02F09101
:100BE00010021082E0911102F09112028FEC8083CA
:100BF00010921B02E0911702F091180286E08083A8
:100C0000E0911502F0911602808180618083E0916D
:100C10001502F0911602808188608083E0911502B0
:100C2000F0911602808180688083E0911502F09136
:100C3000160280818F7D808361E089E00E94E5015A
:100C400060E087E00E94E50161E08EE00E94E5013E
:100C500061E080E10E94E50161E081E10E94E5013F
:100C600061E08FE00E94E50162E080E20E941503EE
:100C700060E081E10E94990162E370E080E090E031
:100C80000E943B02C3E0D0E043E2E42EF12C55EB9E
:100C9000C52E50E0D52E61EAA62E60E0B62E70E09B
:100CA000872E70E0972E60E089E00E949901CE01C6
:100CB0000197F1F761E089E00E949901C70101976E
:100CC000F1F760E089E00E949901F6016491F50175
:100CD0008491E82FF0E0EE0FFF1FE057FF4F859162
:100CE000949100E412E42FE030E0462F0E941405B6
:100CF000611571058105910529F06F5F7F4F8F4F59
:100D00009F4F9F7095958795779567950E945C0892
:100D100027EC3BE44BEE51E40E94B2070E9424080A
:100D20002B013C01F1E94F16F1E05F06610471040B
:100D3000D4F10E940D0380E00E94B50361E271E0EE
:100D400080EA92E00E94700482E00E94B50363E3AF
:100D500071E080EA92E00E94700481E491E00E94D8
:100D6000D80360E080E10E94990160E08FE00E947A
:100D7000990160E08EE00E94990160E081E10E94AB
:100D8000990164E670E080E090E00E943B028114EB
:100D9000910409F488CF0E94F600882309F483CFD8
:100DA0000E94000080CFDC01CB0187599109A10985
:100DB000B1098A3F9105A105B105D0F50E940D0347
:100DC00080E00E94B5036AE571E080EA92E00E944B
:100DD000700482E00E94B5036FE871E080EA92E05F
:100DE0000E947004B301A20180EA92E00E94EB032A
:100DF0006EE371E080EA92E00E94700464E771E0C3
:100E000083E092E00E947004B301A20183E092E0CB
:100E10000E94EB038EE391E00E94D80360E080E142
:100E20000E94990160E08FE00E94990161E0A2CFE9
:100E3000D301C201C397A109B10984369105A10567
:100E4000B10508F051C00E940D0380E00E94B50377
:100E500067E971E080EA92E00E94700482E00E94FB
:100E6000B50368EA71E080EA92E00E947004B30181
:100E7000A20180EA92E00E94EB036EE371E080EA57
:100E800092E00E9470046FEA71E083E092E00E94B9
:100E90007004B301A20183E092E00E94EB038EE3B1
:100EA00091E00E94D80360E080E10E94990161E036
:100EB0008FE00E94990160E08EE00E94990161E05C
:100EC00081E10E94990162E370E080E090E00E947D
:100ED0003B0260E081E10E94990162E370E080E002
:100EE00090E00E943B024DCF0E940D0380E00E94E3
:100EF000B50369EC71E080EA92E00E94700482E040
:100F00000E94B50368EA71E080EA92E00E947004F2
:100F1000B301A20180EA92E00E94EB036EE371E06C
:100F200080EA92E00E9470046DED71E083E092E04F
:100F30000E947004B301A20183E092E00E94EB03DF
:100F40008EE391E00E94D80361E080E10E94990164
:100F500060E08FE00E94990160E08EE00E949901BC
:100F600061E0B8CF0E94C6070C94AE080E94A708A3
:100F700058F00E94A00840F029F45F3F29F00C943B
:100F8000970851110C94E2080C949D080E94BF0828
:100F900068F39923B1F3552391F3951B550BBB27A8
:100FA000AA2762177307840738F09F5F5F4F220FED
:100FB000331F441FAA1FA9F335D00E2E3AF0E0E8E4
:100FC00032D091505040E695001CCAF72BD0FE2F2E
:100FD00029D0660F771F881FBB1F261737074807C2
:100FE000AB07B0E809F0BB0B802DBF01FF2793587A
:100FF0005F4F3AF09E3F510578F00C9497080C949F
:10100000E2085F3FE4F3983ED4F3869577956795C1
:10101000B795F7959F5FC9F7880F911D96958795AE
:1010200097F90895E1E0660F771F881FBB1F6217CD
:1010300073078407BA0720F0621B730B840BBA0B8B
:10104000EE1F88F7E09508950E942B086894B1116F
:101050000C94E20808950E94C70888F09F5798F002
:10106000B92F9927B751B0F0E1F0660F771F881FAD
:10107000991F1AF0BA95C9F714C0B13091F00E94C7
:10108000E108B1E008950C94E108672F782F8827D4
:10109000B85F39F0B93FCCF3869577956795B395EE
:1010A000D9F73EF490958095709561957F4F8F4F5D
:1010B0009F4F0895E89409C097FB3EF49095809562
:1010C000709561957F4F8F4F9F4F9923A9F0F92F0E
:1010D00096E9BB279395F695879577956795B7958C
:1010E000F111F8CFFAF4BB0F11F460FF1BC06F5F72
:1010F0007F4F8F4F9F4F16C0882311F096E911C084
:10110000772321F09EE8872F762F05C0662371F0A4
:1011100096E8862F70E060E02AF09A95660F771FB8
:10112000881FDAF7880F9695879597F9089597F9AC
:101130009F6780E870E060E008959FEF80EC08957D
:1011400000240A94161617061806090608950024A6
:101150000A9412161306140605060895092E039420
:10116000000C11F4882352F0BB0F40F4BF2B11F494
:1011700060FF04C06F5F7F4F8F4F9F4F089557FDF3
:101180009058440F551F59F05F3F71F04795880FF5
:1011900097FB991F61F09F3F79F08795089512168C
:1011A00013061406551FF2CF4695F1DF08C0161638
:1011B00017061806991FF1CF8695710561050894E9
:1011C0000895E894BB2766277727CB0197F9089500
:1011D000A1E21A2EAA1BBB1BFD010DC0AA1FBB1F3B
:1011E000EE1FFF1FA217B307E407F50720F0A21BAD
:1011F000B30BE40BF50B661F771F881F991F1A941A
:1012000069F760957095809590959B01AC01BD0143
:10121000CF010895EE0FFF1F0590F491E02D099482
:04122000F894FFCF70
:10122400000000002C018C00B9007901EA00C8001C
:10123400DC0000000000C3038C006E026D020D0A86
:10124400004449204C554152204A414E474B415598
:10125400414E004A4152414B3A203E343030636D96
:10126400004449204C554152204A414E474B415578
:10127400414E203E343030636D00544944414B208C
:101284004144412059414E47205445524445544518
:101294004B534900544944414B2041444120594156
:1012A4004E4720544552444554454B53492E204AF9
:1012B4004152414B3A20004F424A454B205445523B
:1012C400444554454B5349004A4152414B3A004F1F
:1012D400424A454B20544552444554454B53492EAC
:1012E400204A4152414B3A20004F424A454B205438
:1012F40045524C414C552044454B4154004F424AC1
:10130400454B205445524C414C552044454B415487
:0A1314002E204A4152414B3A2000BE
:00000001FF
